{
  "contractName": "Voting",
  "abi": [
    {
      "constant": true,
      "inputs": [],
      "name": "candidate2Name",
      "outputs": [
        {
          "name": "",
          "type": "string"
        }
      ],
      "payable": false,
      "stateMutability": "view",
      "type": "function"
    },
    {
      "constant": true,
      "inputs": [],
      "name": "candidate2Votes",
      "outputs": [
        {
          "name": "",
          "type": "uint256"
        }
      ],
      "payable": false,
      "stateMutability": "view",
      "type": "function"
    },
    {
      "constant": true,
      "inputs": [],
      "name": "candidate1Name",
      "outputs": [
        {
          "name": "",
          "type": "string"
        }
      ],
      "payable": false,
      "stateMutability": "view",
      "type": "function"
    },
    {
      "constant": true,
      "inputs": [],
      "name": "candidate1Votes",
      "outputs": [
        {
          "name": "",
          "type": "uint256"
        }
      ],
      "payable": false,
      "stateMutability": "view",
      "type": "function"
    },
    {
      "constant": false,
      "inputs": [
        {
          "name": "candidate",
          "type": "string"
        }
      ],
      "name": "vote",
      "outputs": [],
      "payable": false,
      "stateMutability": "nonpayable",
      "type": "function"
    },
    {
      "inputs": [
        {
          "name": "_candidate1",
          "type": "string"
        },
        {
          "name": "_candidate2",
          "type": "string"
        }
      ],
      "payable": false,
      "stateMutability": "nonpayable",
      "type": "constructor"
    }
  ],
  "bytecode": "0x6060604052341561000f57600080fd5b6040516106b03803806106b083398101604052808051820191906020018051820191905050816000908051906020019061004a929190610069565b508060019080519060200190610061929190610069565b50505061010e565b828054600181600116156101000203166002900490600052602060002090601f016020900481019282601f106100aa57805160ff19168380011785556100d8565b828001600101855582156100d8579182015b828111156100d75782518255916020019190600101906100bc565b5b5090506100e591906100e9565b5090565b61010b91905b808211156101075760008160009055506001016100ef565b5090565b90565b6105938061011d6000396000f30060606040526004361061006d576000357c0100000000000000000000000000000000000000000000000000000000900463ffffffff1680636bcd489214610072578063775a1d8f146101005780638756f97514610129578063df972163146101b7578063fc36e15b146101e0575b600080fd5b341561007d57600080fd5b61008561023d565b6040518080602001828103825283818151815260200191508051906020019080838360005b838110156100c55780820151818401526020810190506100aa565b50505050905090810190601f1680156100f25780820380516001836020036101000a031916815260200191505b509250505060405180910390f35b341561010b57600080fd5b6101136102db565b6040518082815260200191505060405180910390f35b341561013457600080fd5b61013c6102e1565b6040518080602001828103825283818151815260200191508051906020019080838360005b8381101561017c578082015181840152602081019050610161565b50505050905090810190601f1680156101a95780820380516001836020036101000a031916815260200191505b509250505060405180910390f35b34156101c257600080fd5b6101ca61037f565b6040518082815260200191505060405180910390f35b34156101eb57600080fd5b61023b600480803590602001908201803590602001908080601f01602080910402602001604051908101604052809392919081815260200183838082843782019150505050505091905050610385565b005b60018054600181600116156101000203166002900480601f0160208091040260200160405190810160405280929190818152602001828054600181600116156101000203166002900480156102d35780601f106102a8576101008083540402835291602001916102d3565b820191906000526020600020905b8154815290600101906020018083116102b657829003601f168201915b505050505081565b60035481565b60008054600181600116156101000203166002900480601f0160208091040260200160405190810160405280929190818152602001828054600181600116156101000203166002900480156103775780601f1061034c57610100808354040283529160200191610377565b820191906000526020600020905b81548152906001019060200180831161035a57829003601f168201915b505050505081565b60025481565b600060405180828054600181600116156101000203166002900480156103e25780601f106103c05761010080835404028352918201916103e2565b820191906000526020600020905b8154815290600101906020018083116103ce575b5050915050604051809103902060001916816040518082805190602001908083835b6020831015156104295780518252602082019150602081019050602083039250610404565b6001836020036101000a0380198251168184511680821785525050505050509050019150506040518091039020600019161415610476576001600260008282540192505081905550610564565b600160405180828054600181600116156101000203166002900480156104d35780601f106104b15761010080835404028352918201916104d3565b820191906000526020600020905b8154815290600101906020018083116104bf575b5050915050604051809103902060001916816040518082805190602001908083835b60208310151561051a57805182526020820191506020810190506020830392506104f5565b6001836020036101000a03801982511681845116808217855250505050505090500191505060405180910390206000191614156105635760016003600082825401925050819055505b5b505600a165627a7a72305820f5b3559c493e945c3503aebeecb3ca4420817649a3cf64894582a1777a408b850029",
  "source": "contract Voting {\n  string public candidate1Name;\n  string public candidate2Name;\n  uint public candidate1Votes;\n  uint public candidate2Votes;\n\n  function Voting(string _candidate1, string _candidate2) {\n    candidate1Name = _candidate1;\n    candidate2Name = _candidate2;\n  }\n\n  function vote(string candidate) {\n    if (keccak256(candidate) == keccak256(candidate1Name)) {\n      candidate1Votes += 1;\n    } else if (keccak256(candidate) == keccak256(candidate2Name)) {\n      candidate2Votes += 1;\n    }\n  }\n}\n",
  "sourcePath": "/Users/apple/personal/lottery/contracts/Voting.sol",
  "compiler": {
    "name": "solc",
    "version": "0.4.18+commit.9cf6e910.Emscripten.clang"
  },
  "schemaVersion": "1.0.1",
  "updatedAt": "2018-01-20T20:58:51.304Z"
}